:100026004C45442054657374696E672E2E2E2E0D32
:100036000A004D435520496E69742E2E2E2E202E11
:100046000D0A004C442052657365742E2E2E2E2008
:100056002E0D0A00CFC8CBB5CAF3B1EA0D0AA3AC80
:10006600D4D9CBB5D7F3BCFC2CD3D2BCFCA3ACBF44
:10007600AACABC00A1B0CAF3B1EAA1B1C3FCC1EEE1
:10008600CAB6B1F0B3C9B9A60D0A00A1B03F3F3F49
:100096003FCAF3B1EAA1B1C3FCC1EECAB6B1F0B32F
:1000A600C9B9A60D0A00A1B0D7F3BCFCA1B1C3FC27
:1000B600C1EECAB6B1F0B3C9B9A60D0A00A1B0D354
:1000C600D2BCFCA1B1C3FCC1EECAB6B1F0B3C9B98A
:1000D600A60D0A00A1B0CBABBBF7A1B1C3FCC1EE24
:1000E600CAB6B1F0B3C9B9A60D0A00C7EBD6D8D0C7
:1000F600C2CAB6B1F0B7A2BFDAC1EE0D0A00C7EBAD
:10010600CBB5B3F6D2BBBCB6BFDAC1EE3A20CAF362
:10011600B1EA0D0A00C8BBBAF3CBB53A20D7F3BC97
:10012600FCA3ACD3D2BCFCBACDB4F2BFAAC8B8F615
:07013600BFDAC1EE0D0A0063
:06094100011C00011B0077
:10068900E4F50912088F7BFF7A0079261208B61261
:1006990008FF7BFF7A0079381208B61200067BFF43
:1006A9007A0079491208B61207EAE4781CF67BFF4A
:1006B9007A00795A1208B6781CE61460FA24F160B7
:1006C9001824DF60F224317020781C760112075754
:1006D900EF70E4781C763180DE120962781EEFF63D
:0F06E9001202FAE4781CF680CEE4781CF680C882
:1008FF00B2C2120929B2C2120929B2C2120929B20F
:0C090F00C2120929B2C2120929B2C22288
:100006007580FFE4F59075A0FF75B0FF75C0FF75AC
:0D00160092FFF591C2C3D289D2A8D2AF22C9
:0A09360000007F057E49DEFEDFFCB5
:010940002294
:0808DB008F148E138D128C1195
:1008E300E4F515F516F517F518781174FF1201667E
:0B08F300EC4D4E4F600512093680EE00
:0108FE0022D7
:0C0929007F117ED07D1BDDFEDEFCDFFABE
:01093500229F
:0300030002082BC5
:10082B00C0E0C0F0C083C082C0D075D000C000C093
:10083B0001C002C003C004C005C006C0071204D526
:10084B00D007D006D005D004D003D002D001D00001
:0B085B00D0D0D082D083D0F0D0E032AB
:1002FA008F0AE50A700F751B017BFF7A00797A1263
:10030A0008B6C2C222E51B64017075F51BD2C2E5AC
:10031A000A24FE601624FE602724FE24FD5036249B
:10032A000970557BFF7A00799180647BFF7A0079A6
:10033A00AC1208B6D290D294120929C290C2942261
:10034A007BFF7A0079C31208B6D291D29612092994
:10035A00C291C296227BFF7A0079DA1208B6D2904D
:10036A00D294120929C294C290120929D294D29025
:10037A00120929C294C290227BFF7A0079F1800F78
:10038A007BFF7A0179041208B67BFF7A01791B1286
:03039A0008B62280
:10025200736875206269616F000000000000000091
:10026200000000007375206269616F0000000000E9
:1002720000000000000000007A756F206A69616E5C
:10028200000000000000000000000000796F7520EF
:100292006A69616E000000000000000000000000BA
:1002A2007368616E67207969000000000000000039
:1002B2000000000079756E2078696E67000000000A
:1002C20000000000000000006B6169207368690093
:1002D200000000000000000000000000736875616B
:1002E2006E67206A69000000000000000000000044
:0802F2000001020405060708E3
:1007EA00D2B57F017E007D007C001208DBC2B57F96
:1007FA00017E007D007C001208DBD2B57F017E00FD
:10080A007D007C001208DBC2A17F017E007D007C96
:10081A00001208DBD2A17F017E007D007C00020865
:01082A00DBF2
:10039D007F061209577D357F1712094C7F0A7E00A3
:1003AD007D007C001208DB7F061209577D037F89D3
:1003BD0012094C7F057E007D007C001208DB7D4319
:1003CD007FCF12094C7F057E007D007C001208DB7B
:1003DD007D027FCB12094C7D0A7F1112094CE4FD81
:1003ED007F1E12094C7D3F7F1912094C7D487F1BE2
:1003FD0012094C7D1F7F1D12094C7F0A7E007D0066
:10040D007C001208DB7D047FCD12094C7F057E0038
:10041D007D007C001208DBE4FD7FB912094C7D4F95
:0C042D007FCF12094C7DFF7F6F02094C4D
:1006F80012039DE4FD7FBD12094C7D487F17120946
:100708004C7F0A7E007D007C001208DB7D807F3CE8
:1007180012094C7D077F3E12094C7DFF7F38120974
:100728004C7D077F3A12094CE4FD7F4012094C7D4D
:10073800087F4212094CE4FD7F4412094C7D087F72
:0F0748004612094C7F017E007D007C000208DB19
:1004D500E4F508C2A87F2B120957781DA607E4FD8D
:1004E5007F2912094CE4FD7F0212094C781DE63084
:1004F500E42D7FB2120957EF642170237FBF1209E3
:1005050057BF351B7FBA1209578F08E508D39400EA
:10051500400DE508D394045006781C7610800478C5
:100525001C7611E4FD7F2B12094CE4FD7F1C12099A
:100535004CE4FD7F2912094CE4FD7F0212094CE4CD
:10054500FD7F2B12094CE4FD7FBA12094CE4FD7FB7
:10055500BC12094C7D017F0812094CE4FD7F08128D
:04056500094CD2A8C3
:01056900226F
:10075700E4F50AF50BF50A1209687F327E007D0081
:100767007C001208DB120439EF700280117F0A7EC9
:10077700007D007C001208DB12056AEF701012077B
:10078700EA7F327E007D007C001208DB8005750B56
:0E079700018009050AE50AC3940540BBAF0BBB
:0107A5002231
:10086600E4F510F50F7FB2120957BF210575100187
:1008760080147F0A7E007D007C001208DB050FE5F0
:080886000FC3940A40DFAF101C
:01088E002247
:030968000206F88C
:10056A00C2A87D557F3512094C7D097F1C12094CA2
:10057A007D207FBD12094C7D017F0812094C7F0145
:10058A007E007D007C001208DBE4FD7F0812094C26
:10059A007F017E007D007C001208DB120866EF7086
:1005AA0002FF227D0B7F1C12094C7DFF7FB21209CC
:1005BA004C7F017E007D007C001208DB7D067F37C0
:1005CA0012094C7F017E007D007C001208DB7D064B
:1005DA007F3712094C7F057E007D007C001208DB04
:1005EA007D107F2912094CE4FD7FBD12094CD2A867
:0305FA007F01225C
:10043900750D01E4F50C120866EF7005F50D02045F
:10044900D2E50C9002F293FD7FC112094CE4FD7FC5
:10045900C312094C7D047F0812094C7F017E007D7F
:10046900007C001208DBE4FD7F0812094C7F017E45
:10047900007D007C001208DBE4F50EE50C75F01434
:10048900A42452F582E43402F583E582250EF5822F
:10049900E43583F583E493FD600E7F0512094C056D
:1004A9000EE50EC3941440D3AD0E7FB912094C7DED
:1004B900FF7FB212094C7D047F3712094C050CE508
:0B04C9000CC39408500302043FAF0D69
:0104D4002205
:060962007FC512095722B7
:0B094C00908100EFF0908000EDF022A1
:0B095700908100EFF0908000E0FF2294
:0409470002192580EC
:10088F00759850758920AE19AF1AAB07AA06E4F90F
:10089F00F8FF7EE1FDFC1207A61201568F8B8F8D9C
:0708AF00D28ED2ACD2AF22C1
:0300230002096B64
:01096B003259
:0E091B00C2ACC2998F993099FDC299D2AC221C
:1008B6008B0B8A0C890DAB0BAA0CA90D12013D609E
:1008C60013050DE50D7002050C14F912013DFF121A
:0508D600091B80E22275
:030000000205FDF9
:0C05FD00787FE4F6D8FD75811E020644EC
:10013D00BB010689828A83E0225002E722BBFE02C0
:09014D00E32289828A83E49322F3
:1007A600C2D5E830E70FB2D5E4C39BFBE49AFAE47E
:1007B60099F9E498F8EC30E717B2D51207DC120184
:1007C600C0E4C39BFBE49AFAE499F9E498F8800341
:1007D6001201C030D50DE4C39FFFE49EFEE49DFDEB
:0407E600E49CFC2271
:0E015600C3E49FFFE49EFEE49DFDE49CFC22BA
:100164007401FF3395E0FEFDFC080808E6CF2FF686
:1001740018E6CE3EF618E6CD3DF618E6CC3CF6225F
:10060900020689E493A3F8E493A34003F68001F278
:1006190008DFF48029E493A3F85407240CC8C333F2
:10062900C4540F4420C8834004F456800146F6DFC1
:10063900E4800B0102040810204080900941E47E07
:10064900019360BCA3FF543F30E509541FFEE493B6
:10065900A360010ECF54C025E060A840B8E493A37D
:10066900FAE493A3F8E493A3C8C582C8CAC583CAA8
:10067900F0A3C8C582C8CAC583CADFE9DEE780BE60
:01094B0000AB
:1001840075F008758200EF2FFFEE33FECD33CDCC32
:1001940033CCC58233C5829BED9AEC99E5829840B5
:1001A4000CF582EE9BFEED9AFDEC99FC0FD5F0D692
:1001B400E4CEFBE4CDFAE4CCF9A88222B800C1B9BC
:1001C4000059BA002DEC8BF084CFCECDFCE5F0CBFA
:1001D400F97818EF2FFFEE33FEED33FDEC33FCEB33
:1001E40033FB10D703994004EB99FB0FD8E5E4F9EE
:1001F400FA227818EF2FFFEE33FEED33FDEC33FCDB
:10020400C933C910D7059BE99A4007EC9BFCE99ACE
:10021400F90FD8E0E4C9FAE4CCFB2275F010EF2F13
:10022400FFEE33FEED33FDCC33CCC833C810D70713
:100234009BEC9AE899400AED9BFDEC9AFCE899F84E
:0E0244000FD5F0DAE4CDFBE4CCFAE4C8F922E1
:00000001FF
